S01900004763634170706C69636174696F6E3131322E73726563F6
S11300000C9434000C9446000C9446000C94460066
S11300100C9446000C9446000C9446000C94480042
S11300200C9446000C9446000C9446000C94460034
S11300300C9446000C9446000C9446000C94460024
S11300400C9446000C9446000C9446000C94460014
S11300500C9446003D013F01410143014501470124
S113006049014B014D014F0111241FBECFE5D8E0DA
S1130070DEBFCDBF20E0A0E6B0E001C01D92AA36ED
S1130080B207E1F70E94EE000C946A010C940000A0
S11300901F920F920FB60F9211242F933F938F93B9
S11300A09F9389B3837090E0909369008093680074
S11300B020916600309167008217930709F483C08A
S11300C02130310509F445C01CF4232B29F177C0F4
S11300D02230310529F02330310509F455C06FC0B1
S11300E08330910559F420916200309163002F5FB1
S11300F03F4F309363002093620061C0009709F082
S11301005EC020916000309161002F5F3F4F3093BB
S113011061002093600053C08230910559F420910E
S11301206200309163002F5F3F4F30936300209350
S1130130620045C08130910509F041C02091600002
S1130140309161002F5F3F4F309361002093600036
S113015036C0009759F420916200309163002F5FFC
S11301603F4F309363002093620029C08330910590
S113017031F520916000309161002F5F3F4F309343
S11301806100209360001BC08130910559F42091D7
S11301906200309163002F5F3F4F309363002093E0
S11301A062000DC08230910551F4209160003091BD
S11301B061002F5F3F4F3093610020936000909364
S11301C06700809366001DBC1CBC9F918F913F917A
S11301D02F910F900FBE0F901F90189583E08BBB4B
S11301E01ABA18BA9FEF97BB1FBC9AE09EBD1DBCFC
S11301F01CBC17BC16BC8BBD88EE8ABD19BC18BCD0
S113020080E189BF7894B0E8A0E470E260E158E04E
S113021044E032E021E08091620090916300049711
S11302206CF0809164009091650001969093650054
S113023080936400109263001092620080916000C9
S11302409091610004976CF0809164009091650036
S1130250019790936500809364001092610010925E
S1130260600080916400909165008A309105C0F42B
S1130270FC01E65DFF4F0C94640118BA11C028BB61
S11302800FC038BB0DC048BB0BC058BB09C068BB0E
S113029007C078BB05C0A8BB03C0B8BB01C018BA6F
S11302A080916400909165008A30910529F4109240
S11302B0650010926400AFCF99230CF0ACCF10927C
S11302C0650010926400A7CFEE0FFF1F0590F49114
S10B02D0E02D0994F894FFCF1E
S9030000FC
